:100000000C94F3170C9424180C9424180C942418B2
:100010000C9424180C9424180C9424180C94241870
:100020000C9424180C9424180C9424180C94241860
:100030000C9424180C9424180C9424180C94241850
:100040000C9424180C9495900C9424180C94241857
:100050000C9424180C9424180C943D730C9490EE7A
:100060000C9424180C94834F0C9424180C9424188A
:100070000C9424180C9424180C9424180C94241810
:100080000C9424180C9424180C9424180C94241800
:100090000C9424180C9424180C9424180C942418F0
:1000A0000C9424180C9424180C9424180C942418E0
:1000B0000C9424180C9424180C9424180C942418D0
:1000C0000C9424180C9424180C9424180C94C16CCF
:1000D0000C9424180C9424180C9424180C942418B0
:1000E0000C942418C630D4302031F03010312C312B
:1000F0003931D432E632E632923592359235923544
:1001000092359235923592359235923592359235B7
:1001100092359235923592359235923592359235A7
:100120009235923592359235923592359235923597
:1001300092351A3331334D337833BC33D132CE322A
:100140002D3535355F35753524344E34AE3B33416E
:100150002941B13BB13BB13BDA3FAD3F953F543F05
:10016000503F153FB13BB13BB13BB13BB13BB13B24
:10017000B13BB13BAC3B0B3F0D3F113F133F2E6EEC
:10018000386E3F6E456E4B6E516E576E5D6EDF6E14
:10019000636EDF6EDF6E796E4B6F5D6F7D6F826FAA
:1001A000976FA76FC06FD26FE370EC6FE370007052
:1001B000E3700470097056706A707C708B70AB705D
:1001C000C670E6A8EEA8F1A8F6A8F9A802A905A9A4
:1001D000ACAB0BA9ACAB19AADCA9F0A9F5A92FAA65
:1001E0004EAAACABACABACAB78AA7DAAAEAAACAB1A
:1001F000C0AAC5AACAAACFAAD4AAD9AADEAAE3AA23
:10020000E8AAEDAAF2AAF7AAFCAA01AB06AB0BABCF
:1002100010AB15AB1AAB1FAB24AB29AB2EAB33AB7A
:10022000ACABACAB76AB08A981AB89ABACAB92AB5A
:1002300099ABAAAB16A9ACAB27A9ACABACABACAB3A
:1002400038A93DA94AA950A956A95CA962A968A9DB
:10025000ACAB6CA96EA973A975A977A979A97BA97B
:100260007DA9ACAB8EA942A990A992A994A996A9FF
:1002700098A99AA9ACABACABACABACABACABACABF0
:10028000ACAB9CA963AA39AB43AB4DAB57AB61ABED
:100290006AABB6A9B9A9C1A9D6A930B333B322B301
:1002A00026B32CB36AB337B33BB341B345B349B3B9
:1002B0004FB353B357B36AB35DB361B365B3CBB94F
:1002C000D0B9D5B9DFB9E9B962BAF3B9FBB903BAA4
:1002D0000DBA17BA21BA30BA3ABA62BA44BA4EBAAB
:1002E00058BA084AD73B3BCE016E84BCBFFDC12F34
:1002F0003D6C74319ABD56833DDA3D00C77F11BE17
:10030000D9E4BB4C3E916BAAAABE000000803F0519
:10031000A84CCDB2D44EB93836A9020C50B991864A
:1003200088083CA6AAAA2ABE000000803F004E41D1
:100330004E494E495459494E46CDCCCC3D0AD7235F
:100340003C17B7D13877CC2B329595E6241FB14FA7
:100350000A000020410000C84200401C4620BCBEEC
:100360004CCA1B0E5AAEC59D7400407A10F35A0059
:10037000A0724E18090010A5D4E80000E8764817CE
:100380000000E40B54020000CA9A3B000000E1F5B3
:1003900005000080969800000040420F000000A079
:1003A0008601000000102700000000E803000000A4
:1003B000006400000000000A0000000000010000CE
:1003C0000000002C76D888DC674F0823DFC1DFAE41
:1003D00059E1B1B796E5E3E453C63AE6519976960A
:1003E000E8E6C28426EB898C9B62ED407C6FFCEFD3
:1003F000BC9C9F40F2BAA56FA5F490055A2AF75C01
:10040000936B6CF9676DC11BFCE0E40D47FEF520B2
:10041000E6B500D0ED902E0300943577050080847A
:100420001E080000204E0A000000C80C333333338E
:100430000F986E12831141EF8D2114893BE65516FA
:10044000CFFEE6DB18D1844B381BF77C1D901DA432
:10045000BBE424203284725E228100C9F124ECA125
:10046000E53D27434F4D4D554E49434154494F4E6D
:100470000044525952554E004552524F5253004972
:100480004E464F004543484F0047322F47332062C6
:10049000616420706172616D65746572730A0053E6
:1004A0006C6565702E2E2E00486F6D6520585920A2
:1004B00066697273740A00486F6D6520585920662A
:1004C0006972737400205A3A200020593A20004281
:1004D000656420583A20004D65736820706F696E1E
:1004E000742063616E6E6F74206265207265736F35
:1004F0006C7665640A004E6F206D6F76652E004540
:100500006E642066696C65206C6973740A004265CC
:1005100067696E2066696C65206C6973740A004DAA
:1005200031323500286E6F2066696C6529005344AE
:10053000207072696E74696E67206279746520003C
:100540004E6F74205344207072696E74696E670A2E
:100550000043757272656E742066696C653A20009E
:100560005072696E742074696D653A200084047F4E
:10057000047804710463046F66660044454255477D
:100580003A004B494C4C45442E20004D313133202C
:1005900053006F6B00544845524D414C5F50524FD1
:1005A00054454354494F4E004155544F5245504FC6
:1005B00052545F53445F53544154555300454D4585
:1005C0005247454E43595F504152534552004341B3
:1005D00053455F4C494748545F4252494748544E3F
:1005E00045535300544F47474C455F4C4947485487
:1005F0005300534F4654574152455F504F57455251
:10060000004255494C445F50455243454E54004CBE
:100610004556454C494E475F44415441005A5F504E
:10062000524F4245004155544F4C4556454C0050A1
:1006300052494E545F4A4F420050524F4752455321
:1006400053004155544F5245504F52545F54454DFD
:100650005000564F4C554D45545249430045455066
:10066000524F4D0053455249414C5F584F4E5F58D1
:100670004F4646004649524D574152455F4E414D07
:10068000453A4D61726C696E20312E312E392E3013
:10069000303120284769746875622920534F5552BC
:1006A00043455F434F44455F55524C3A68747470FC
:1006B000733A2F2F6769746875622E636F6D2F48C8
:1006C0006950726563792F4D61726C696E2D312EA0
:1006D000782D486950726563792050524F544F43CA
:1006E0004F4C5F56455253494F4E3A312E30204DB4
:1006F000414348494E455F545950453A4869507204
:10070000656379204C454F20455854525544455215
:100710005F434F554E543A3120555549443A63652D
:100720006465326132662D343161322D34373438AC
:100730002D396231322D63353563363266333637C3
:1007400066660A002F2F20002054002052004163CB
:1007500063656C65726174696F6E3A2050004F6614
:100760006673657473206170706C696564004572AE
:10077000723A20546F6F206661722100546F6F20AF
:100780006661722066726F6D207265666572656E55
:10079000636520706F696E740A0020466C6F773A4B
:1007A000200000013637263FFFFFFF463C3D380E54
:1007B000FFFFFF272B303A0CFFFFFFFF4AFF0B081C
:1007C0002C2D2EFF1A1C18FFFF2F0845052E425016
:1007D000726F6265205A204F66667365743A200016
:1007E00043290A0061626C656420286D696E20747B
:1007F000656D702000436F6C642065787472756459
:10080000657320617265200020643A0020693A0017
:1008100020703A004E6F2063617365206C696768D1
:10082000740A00454550524F4D204F4B0A003F5A25
:10083000206F7574206F662072616E676520282DA9
:10084000323020746F203230290A003A2000507272
:100850006F6265205A204F66667365740041637449
:100860006976652045787472756465723A2000492E
:100870006E76616C69642065787472756465720A5D
:10088000004D3130392053323430004D3139302071
:10089000533530004D31343020533530004D313038
:1008A000342053323430004D31303920533234301B
:1008B000004D31393020533730004D313430205322
:1008C0003730004D3130342053323430004D313028
:1008D000392053323430004D313930205338300014
:1008E0004D31343020533830004D313034205332C4
:1008F0003430004739322045302E300047312058FF
:1009000031352059313520463630303000473239C4
:1009100000473238004D3130392053323130004DEC
:1009200031393020533535004D3134302053353591
:10093000004D3130342053323130004D31303700EA
:100940004731204634303030004D3230342053317E
:10095000303030004731205A352046373230302E83
:1009600030303000473120452D312E353030303099
:100970002046323130302E3030303030004D383378
:100980000047393000473231004739322045302E98
:100990003000473120583530205935352045332E29
:1009A000363237373300473120583230302059350E
:1009B000352045302E34393338360047312058320F
:1009C0003030205937352045332E36323737330013
:1009D000473120583530205937352045302E3439AD
:1009E00033383600473120583530205939352045C5
:1009F000332E3632373733004731205832303020EB
:100A00005939352045302E343933383600473120B6
:100A10005832303020593131352045332E36323777
:100A20003733004731205835302059313135204592
:100A3000302E34393338360047312058353020597C
:100A40003133352045332E363237373300473120A6
:100A50005832303020593133352045302E3636313A
:100A60003734004731205832303020593135352065
:100A700045322E3632373733004731205831303047
:100A8000205931353520453200473120583735203F
:100A9000593135352045322E350047312046313029
:100AA0003830004731205A302E333020463732302C
:100AB000302E303030004731205835302059313514
:100AC00035004D3834004731205831302059313805
:100AD00030204634303030004731205A3130204603
:100AE000313330302E303030004D313430205330FF
:100AF000004D31303420533000473120452D302E09
:100B000030373530302046323130302E30303030D2
:100B100030004D313037004D3530300050494420E1
:100B20006175746F74756E65206661696C202E0046
:100B3000504944206175746F74756E652066696EE6
:100B40006973686564202E00436172642072656D6C
:100B50006F766564004361726420696E73657274B8
:100B60006564004D3234004D313235005072696E8B
:100B7000742061626F72746564004D3130362050AC
:100B8000256920532569004D3130392053256900EE
:100B90004D313930205325690043616E6E6F7420EA
:100BA000656E746572207375626469723A200053D1
:100BB0004420696E6974206661696C0A00534420A0
:100BC000696E6974206661696C00534420636172C8
:100BD00064206E6F7420666F756E642E00726F6F86
:100BE0007420696E6465783A005265667265736850
:100BF000206F6B2E0A0066696C653A00506F77654E
:100C0000722D6C6F737320636F6E74696E756520DF
:100C100000506F7765722D6C6F73732063616E6324
:100C2000656C004D35303100473238205859004747
:100C3000323820585900473238205859003B093182
:100C40000928091F09150911090D09FC08F3083BBA
:100C500009E908E008D708CD0811090D09FC08F3D7
:100C6000083B09C308BA08B108A70811090D09FC17
:100C700008F3083B099D0894088B08810811090DA9
:100C800009FC08F3084D313137204669727374202E
:100C90006C617965722063616C2E00663A004731A1
:100CA00020583130302E30204531322E352046311B
:100CB0003030302E30004731205836302E3020452D
:100CC000392E302046313030302E30004731205A16
:100CD000302E3330008909850981097D0964095462
:100CE000094909400947312058353020593335200A
:100CF00045257300B60AA30A9A0A890A790A630A83
:100D00004D0A380A230A0D0AF809E409D009BB097B
:100D1000A6099209473120592573204525730047BC
:100D20003120582564205925732045257300170B61
:100D3000120BF90AF10AE90AD80AC60AC20A486976
:100D40005072656379204C454F2052656164792E5D
:100D5000004D353031004D35303000257500556E71
:100D60006B6E6F776E2E002569730025696D2025E7
:100D70006973002569682025696D20256973002540
:100D80006964202569682025696D2025697300251F
:100D9000697920256964202569682025696D2025E9
:100DA000697300656E7175657565696E67202200EF
:100DB00020496E76616C696420657874727564652B
:100DC0007220000000000000000000000000000091
:100DD000006643000066430000824342696C696E0E
:100DE000656172204C6576656C696E672047726933
:100DF000643A0A00486F6D696E67206661696C65C8
:100E00006400202844525952554E29004732392057
:100E10004175746F20426564204C6576656C696E1F
:100E200067003F20284C2C522C462C4229206F75FD
:100E300074206F6620626F756E64732E0A003F28FF
:100E400056296572626F7365206C6576656C2069E2
:100E50007320696D706C61757369626C65202830F0
:100E60002D34292E0A00426164205A2076616C7567
:100E7000650A004E6F2062696C696E656172206759
:100E80007269640A00257500494E56414C49442058
:100E900044415441004D32342053256C6420542584
:100EA0006C64004D323320257300473120462564A1
:100EB000004730205A2573004739332058595A00CB
:100EC00047323820523020582059004730205A35B8
:100ED000004739322E30205A2573204525730020D3
:100EE00020506C616E6E65724275666665724279FD
:100EF0007465733A20002046726565204D656D6FFC
:100F000072793A2000436F6D70696C65643A204EC7
:100F10006F7620313520323031390A00207C204173
:100F20007574686F723A20286E6F6E652C20646548
:100F30006661756C7420636F6E666967290A00329A
:100F40003031382D30382D303100204C6173742011
:100F5000557064617465643A2000312E312E392E4B
:100F60003030310A004D61726C696E0020536F663B
:100F700074776172652052657365740A0020576149
:100F8000746368646F672052657365740A00204259
:100F9000726F776E206F75742052657365740A00E6
:100FA0002045787465726E616C2052657365740AB1
:100FB00000506F77657255700A0073746172740A1D
:100FC000004D3234004D3233202573006175746F4B
:100FD00025692E67006572726F7220777269746975
:100FE0006E6720746F2066696C650A0057726974B9
:100FF000696E6720746F2066696C653A2000205A1C
:101000003A0020593A0020583A00656E6473746FB4
:101010007073206869743A2000446F6E65207361B4
:1010200076696E672066696C652E0A004D3239005C
:101030004732382058590A4D3834004F66660A0046
:10104000466164652048656967687420004265648C
:10105000204C6576656C696E6720004661696C6539
:101060006420746F20656E61626C65204265642047
:101070004C6576656C696E670A004D657368207013
:101080006F696E742063616E6E6F7420626520728A
:1010900065736F6C7665640A004D34323120696E79
:1010A000636F727265637420706172616D657465DF
:1010B000722075736167650A00496E7365727420EA
:1010C00066696C616D656E7420616E642070726516
:1010D000737320627574746F6E0A000A20202020DA
:1010E000202020496E736572742066696C616D659D
:1010F0006E7420616E640A20202020707265737304
:1011000020627574746F6E20746F20636F6E7469E3
:101110006E75652E2E2E0050726573732062757485
:10112000746F6E20746F2068656174206E6F7A7AB8
:101130006C650A000A20202020546865206E6F7AB2
:101140007A6C652068617320636F6F6C20646F77C1
:101150006E200A707265737320627574746F6E20EE
:10116000746F2072656865617420746865206E6FA5
:101170007A7A6C652E00496E736572742066696CAC
:10118000616D656E7420616E64207072657373208A
:10119000627574746F6E20286F72204D313038295B
:1011A0000A000A20202020202020496E73657274D6
:1011B0002066696C616D656E7420616E640A202022
:1011C0002020707265737320627574746F6E207462
:1011D0006F20636F6E74696E75652E2E2E00202051
:1011E00020202020202046696C616D656E7420727D
:1011F000756E6F7574210A5761697420666F72206D
:101200007374617274206F66206368616E67652015
:1012100070726F636573732E00617869733A7077CB
:101220006D5F7363616C65207C7374617475735F4B
:10123000726573706F6E73657C0A004472697665BF
:1012400072207265676973746572733A006F74090E
:10125000006F747077090073326761090073326739
:101260006209006F6C6109006F6C6209007374732E
:101270007409006673616374697665090073675F5A
:10128000726573756C7409007374616C6C67756159
:1012900072640900445256535441545553005374D8
:1012A000616C6C67756172642074687273002D7371
:1012B0007461727409006879737465726573697317
:1012C0000A2D656E640900626C616E6B2074696D35
:1012D00065006F66662074696D6509004F54207063
:1012E00072657761726E206861730A6265656E204F
:1012F000747269676765726564004F542070726527
:101300007761726E005B6D6D2F735D090070776D94
:101310000A7468726573686F6C640900747374652D
:101320007009006D73746570730900737465616C86
:10133000746843686F70007673656E73650900505A
:10134000574D207363616C650900435320616374DA
:1013500075616C0900486F6C642063757272656E0C
:10136000740052756E2063757272656E74004D4123
:10137000582063757272656E7400524D5320637508
:101380007272656E74005365742063757272656E57
:101390007400456E61626C6564090009004732386B
:1013A000205A0A4D393136000A486F6D696E672040
:1013B0005A2064756520746F206C6F737420737489
:1013C0006570730A000A43616C6962726174696FC7
:1013D0006E2063757272656E743A205A000A506C02
:1013E0006561736520686F6D65205A206178697347
:1013F0002066697273740A0053442063617264202A
:101400006F6B0A006F70656E526F6F742066616952
:101410006C65640A00766F6C756D652E696E697413
:10142000206661696C65640A00534420696E6974C2
:10143000206661696C0A0000002000230026002954
:10144000002C002F003200000100000301060109FA
:101450000100002200250028002B002E003100345E
:101460000002010000050108010B01050505050743
:101470000508080808020202020A0A08080404040F
:10148000040101010101010101030303030303033B
:1014900003040707070C0C0C0C0C0C0C0C020202CA
:1014A0000206060606060606060B0B0B0B0B0B0BBD
:1014B0000B07070A0A0A0A0A0A05050504040408B4
:1014C000080102102020080810204010204080024F
:1014D000010201080402010102040810204080807A
:1014E00040201008040201800402018040201008FE
:1014F00004020108040201010204081020408001D6
:1015000002040810204080100804088010204004C5
:1015100040801020400480453400453300453200AF
:101520004531004530005A32005932005832005AD5
:101530000059005800331531152F152C1529152683
:1015400015231520151D151A1517157472756500CC
:1015500066616C7365002074656D70657261747589
:101560007265207072657761726E20747269676748
:10157000657265643A2000207072657761726E2032
:10158000666C616720636C65617265640A0020683F
:101590006F6D696E672073656E73697469766974BF
:1015A000793A2000747275650066616C7365007429
:1015B0007275650066616C736500747275650066AE
:1015C000616C736500313D2E313800303D2E333271
:1015D00035002F3331002F3331002F333100747237
:1015E00075650066616C736500203D203078002EC3
:1015F000FFFFFFFFFF0001010101016265640A00B6
:101600002C2073797374656D2073746F70706564CA
:1016100021204865617465725F49443A2000426543
:10162000642068656174696E67206661696C6564D1
:101630000048656174696E67206661696C65640065
:1016400045312048656174696E67206661696C6523
:10165000640048656174696E67206661696C6564E1
:101660000070012C0190012701B0012201C0011D71
:1016700001F00118011002130130020E016002098D
:101680000190020401C002FF000003FA004003F5CC
:10169000008003F000D003EB002004E6007004E1BA
:1016A00000E004DC004005D700C005D2004006CDB4
:1016B00000D006C8008007C3003008BE00F008B99B
:1016C00000C009B400B00AAF00B00BAA00D00CA54E
:1016D00000000EA000500F9B00C010960050129109
:1016E0000000148C00C0158700B0178200B0197D6F
:1016F00000D01B7800001E730040206E009022690D
:1017000000F024640040275F0090295A00E02B5528
:1017100000102E500020304B0010324600E03341C4
:101720000090353C001037370070383200A0392D5A
:1017300000B03A2800A03B2300603C1E00103D1979
:1017400000903D1400103E0F00703E0A00C03E05A0
:1017500000003F0000403FFBFF803FF6FFC03FF12D
:10176000FF453120544845524D414C2052554E4181
:101770005741590042454420544845524D414C2060
:1017800052554E4157415900546865726D616C2045
:1017900052756E61776179004531204572723A2049
:1017A0004D415854454D50004572723A204D4158B4
:1017B00054454D5020424544004D415854454D50EC
:1017C00020747269676765726564004531204572EF
:1017D000723A204D494E54454D50004572723A20A0
:1017E0004D494E54454D5020424544004D494E54BC
:1017F000454D5020747269676765726564004D38A5
:101800003420582059205A204500202F00204240E3
:101810003A0020403A00526573656E643A20006FCA
:101820006B00627573793A20706175736564206628
:101830006F7220696E7075740A00627573793A2050
:1018400070617573656420666F7220757365720AC6
:1018500000627573793A2070726F63657373696E95
:10186000670A004B494C4C45442E20004B494C4CD8
:101870002063617573656420627920746F6F206DD9
:1018800075636820696E6163746976652074696D3B
:1018900065202D2063757272656E7420636F6D6DA7
:1018A000616E643A20007C3C3E5E2B3D3F2F5B5DC9
:1018B0003B2C2A225C0024F4D43050C38E20C2A2D8
:1018C0004017828B7011127A910D816CD90AA86130
:1018D000E108C7586607615143061E4B5D05C145C7
:1018E000A7041A411104093D9803713931034036A8
:1018F000DB0265339102D4305402802E1D02632C2A
:10190000EE01752AC501B028A001102781018F259D
:1019100064012B244B01E0223401AC211F018D20F6
:101920000D01801FFC00841EED00971DDF00B81C18
:10193000D200E61BC600201BBC00641AB200B2191C
:10194000A8000A19A0006A189900D1179100401741
:101950008B00B516840031167E00B31579003A1558
:101960007300C7146F0058146A00EE1366008813E2
:10197000630025135E00C7125B006C12570015123E
:101980005400C111510070114F0021114B00D610AD
:1019900049008D1047004610440002104200C00F5D
:1019A0004000800F3E00420F3C00060F3B00CB0E74
:1019B0003800930E37005C0E3500270E3400F30D0F
:1019C0003200C10D3100900D3000600D2E00320D3F
:1019D0002D00050D2C00D90C2B00AE0C2900850C18
:1019E00029005C0C2700350C27000E0C2600E80BA4
:1019F0002400C40B2400A00B23007D0B23005A0BF2
:101A00002100390B2100180B2000F80A1F00D90A09
:101A10001E00BB0A1E009D0A1D00800A1D00630AED
:101A20001C00470A1B002C0A1B00110A1A00F709A8
:101A30001A00DD091900C4091900AB09190092093F
:101A400017007B091800630917004C0916003609B6
:101A50001600200916000A091500F5081500E0080F
:101A60001400CC081400B8081400A408140090084E
:101A700013007D0812006B08130058081200460876
:101A80001200340811002308110012081100010887
:101A90001100F0071000E0071000D0071000C00789
:101AA0001000B0070F00A107100091070E00830778
:101AB0000F0074070F0065070E0057070E00490757
:101AC0000E003B070D002E070E0020070D00130728
:101AD0000D0006070D00F9060C00ED060D00E006EE
:101AE0000C00D4060C00C8060C00BC060C00B006A6
:101AF0000C00A4060B0099060C008D060B00820654
:101B00000B0077060B006C060B0061060A005706F7
:101B10000B004C060A0042060A0038060A002E0690
:101B20000A0024060A001A060A0010060900070621
:101B30000A00FD050900F4050900EB050900E205AE
:101B40000900D9050900D0050900C7050900BE052F
:101B50000900B5050800AD050800A50509009C05AC
:101B60000800940508008C050800840508007C0521
:101B70000800740508006C050700650508005D0590
:101B80000700560508004E050700470507004005F9
:101B9000080038050700310507002A05070023055E
:101BA00007001C050600160507000F0507000805BD
:101BB000060002050700FB040600F5040700EE041A
:101BC0000600E8040600E2040700DB040600D50472
:101BD0000600CF040600C9040600C3040600BD04C5
:101BE0000600B7040600B1040500AC040600A60414
:101BF0000600A00405009B0406009504050090045F
:101C000006008A04050085040500800406007A04A5
:101C1000050075040500700405006B0405006604EA
:101C20000500610405005C0405005704050052042A
:101C300005004D04050048040500430405003E046A
:101C400004003A04050035040500300404002C04A7
:101C5000050027040400230405001E0404001A04E0
:101C6000040016040500110404000D040400090416
:101C700005000404040000040400FC030400F8034D
:101C80000400F4030400F0030400EC030400E80380
:101C90000400E4030400E0030400DC030400D803B0
:101CA0000400D4030400D0030400CC030400C803E0
:101CB0000300C503030024F404D9201BC40C5C0EEC
:101CC0009804C4095F0265077101F405F900FB047B
:101CD000B30048048700C10369005803550003039B
:101CE0004500BE023A008402310053022A00290254
:101CF000250004022000E4011C00C8011900AF0106
:101D00001700980114008401130071011000610193
:101D1000100051010E0043010D0036010B002B0194
:101D20000B0020010B00150109000C010900030143
:101D30000800FB000800F3000800EB000700E400C7
:101D40000600DE000600D8000600D2000600CC0027
:101D50000500C7000500C2000500BD000400B90071
:101D60000400B5000400B1000400AD000400A900A7
:101D70000400A5000300A20003009F0004009B00D4
:101D800003009800030095000200930003009000F8
:101D900003008D0002008B00030088000200860013
:101DA000020084000300810002007F0002007D0029
:101DB00002007B000200790002007700010076003B
:101DC00002007400020072000100710002006F0046
:101DD00002006D0001006C0002006A000100690051
:101DE0000200670001006600010065000100640058
:101DF00002006200010061000100600001005F005C
:101E000002005D0001005C0001005B0001005A005F
:101E10000100590001005800010057000100560060
:101E20000100550001005400010053000000530060
:101E300001005200010051000100500001004F005C
:101E400001004E0000004E0001004D0001004C005A
:101E500001004B0000004B0001004A000100490056
:101E60000100480000004800010047000100460052
:101E7000000046000100450000004500010044004C
:101E80000100430000004300010042000000420046
:101E900001004100000041000100400001003F003E
:101EA00000003F0001003E0000003E0001003D0038
:101EB00000003D0001003C0000003C0000003C0030
:101EC00001003B0000003B0001003A0000003A0026
:101ED000010039000000390001003800000038001E
:101EE0000000380001003700000037000100360014
:101EF000000036000000360001003500000035000B
:101F000000003500010034000000340000003400FF
:101F100001003300000033000000330001003200F4
:101F200000003200000032000100310000003100EA
:101F300000003100010030000000300000003000DF
:101F400001002F0000002F0000002F0000002F00D4
:101F500001002E0000002E0000002E0001002D00C8
:101F600000002D0000002D0000002D0001002C00BD
:101F700000002C0000002C0000002C0001002B00B1
:101F800000002B0000002B0000002B0001002A00A5
:101F900000002A0000002A0000002A000100290099
:101FA000000029000000290000002900000029008D
:101FB0000100280000002800000028000000280080
:101FC0000000280001002700000027000000270073
:101FD0000000270000002700010026000000260066
:101FE0000000260000002600000026000100250059
:101FF000000025000000250000002500000025004D
:10200000000025000100240000002400000024003E
:102010000000240000002400010023000000230031
:102020000000230000002300000023000000230024
:102030000000230001002200000022000000220016
:102040000000220000002200000022000100210008
:1020500000002100000021000000210000002100FC
:1020600000002100000021000100200000002000ED
:1020700000002000000020000000200000002000E0
:10208000000020000000200001001F0000001F00D1
:1020900000001F0000001F0000001F0000001F00C4
:1020A00000001F0001001E0000001E0000001E00B6
:1020B00000001E000000043700001E290000511B14
:1020C00000005810000010090000CC040000780245
:1020D0000000410100004469666665723A200046CE
:1020E000726F6D5374703A00537465707065723A14
:1020F00000556E4C6576656C3A004C6576656C658E
:10210000643A005261773A20202020000A4C6F6721
:102110006963616C3A002C20002C20003A00436176
:10212000703A005741524E494E4721204C6F77205C
:102130005A204A65726B206D6179206C656164205C
:10214000746F20756E77616E74656420706175734D
:1021500065732E0A00205A00205900580020204D97
:1021600061783A2000205A00205900580020204D64
:10217000696E3A20004F6E20004F666600536F660E
:102180007420656E6473746F70733A200020643A33
:102190000020693A0020703A00496E76616C6964EB
:1021A0002065787472756465720A004B64200023A0
:1021B000646566696E652044454641554C545F0030
:1021C0004B69200023646566696E6520444546417D
:1021D000554C545F004B70200023646566696E6542
:1021E0002044454641554C545F00504944204175B8
:1021F000746F74756E652066696E697368656421B5
:102200002050757420746865206C617374204B7065
:102210002C204B6920616E64204B6420636F6E73C9
:1022200074616E74732066726F6D2062656C6F7777
:1022300020696E746F20436F6E6669677572617492
:10224000696F6E2E680A00504944204175746F749E
:10225000756E65206661696C6564212074696D65C1
:102260006F75740A00453120544845524D414C2049
:1022700052554E4157415900424544205448455219
:102280004D414C2052554E4157415900546865729A
:102290006D616C2052756E6177617900453120481F
:1022A000656174696E67206661696C65640042658A
:1022B000642068656174696E67206661696C656435
:1022C0000048656174696E67206661696C656400C9
:1022D000504944204175746F74756E65206661695C
:1022E0006C6564212054656D7065726174757265EA
:1022F00020746F6F20686967680A00204B643A2079
:1023000000204B693A2000204B703A20000A2043FD
:102310006C617373696320504944200A002054752E
:102320003A2000204B753A2000206D61783A200059
:10233000206D696E3A200020643A200020626961B5
:10234000733A2000504944204175746F74756E656E
:10235000206661696C6564212054656D70657261E9
:102360007475726520746F6F2068696768005049E2
:1023700044204175746F74756E65206661696C6583
:1023800064212054656D7065726174757265207486
:102390006F6F20686967680A00504944204175746E
:1023A0006F74756E652073746172740A00504944CD
:1023B000204175746F74756E65206661696C656423
:1023C0002120426164206578747275646572206EA4
:1023D000756D62657200504944204175746F747563
:1023E0006E65206661696C656421204261642065C8
:1023F00078747275646572206E756D6265720A001C
:102400006274643A006E65775F7A6F6666736574AE
:102410003A0062616279737465705F696E637265B8
:102420006D656E743A000000824200008242000036
:10243000C0400000000047323900473238000A200F
:102440002020204C6576656C696E67206973206971
:102450006E2070726F67726573732E004D31370096
:102460004D3138004D393939206F6B2E0A00473213
:10247000380A4D393135004732382058302059302C
:1024800000473238205A3000473238205930004750
:1024900032382058300047323800506C656173651F
:1024A000207265736574005052494E54455220485D
:1024B000414C544544005072696E746572206861E5
:1024C0006C7465642E206B696C6C28292063616CC8
:1024D0006C6564210A0020647269766572206375F8
:1024E0007272656E743A20000000F0C00000A0C057
:1024F000000000005761726E696E673A20486F6D88
:10250000696E672042756D702044697669736F72D9
:10251000203C20310A000202040000A0410000A07B
:102520004100000040000066430000664300008256
:1025300043FFFFFF4D333100534420726561642037
:102540006572726F720A00446F6E65207072696EF8
:1025500074696E672066696C650A004B494C4C458E
:10256000442E200053544F505045442E20005072AA
:10257000696E7465722073746F7070656420647521
:102580006520746F206572726F72732E20466978B1
:1025900020746865206572726F7220616E642075A8
:1025A0007365204D39393920746F207265737461F9
:1025B00072742E202854656D706572617475726531
:1025C0002069732072657365742E205365742069C9
:1025D00074206166746572207265737461727469C7
:1025E0006E67290A004E6F20436865636B73756DD3
:1025F0002077697468206C696E65206E756D626500
:10260000722C204C617374204C696E653A20004E28
:102610006F20436865636B73756D207769746820FC
:102620006C696E65206E756D6265722C204C6173ED
:1026300074204C696E653A2000636865636B73753E
:102640006D206D69736D617463682C204C617374C7
:10265000204C696E653A20004C696E65204E756DA0
:10266000626572206973206E6F74204C61737420F0
:102670004C696E65204E756D6265722B312C204C55
:10268000617374204C696E653A20004D3131300021
:102690000A202048656174696E67206E6F7A7A6CD3
:1026A000652C506C6561736520776169742E2E2EE0
:1026B00000486F74656E6420746F6F20636F6C6484
:1026C0000A0000002100240027002A002D0030000D
:1026D000330001010000040107010A0100000A0B98
:1026E00002090C0D0E0807030401000000000000A1
:1026F00000000000000000000000000000000000DA
:102700000000000000000000121110000000000096
:1027100000000000000000000000000000000000B9
:1027200000000000000000000000000000000000A9
:102730000000556E6B6E6F776E20636F6D6D616E0E
:10274000643A2022004348414E4745204F505449A7
:102750004F4E533A005761697420666F7220666964
:102760006C616D656E742070757267652E005761BF
:10277000697420666F722066696C616D656E742085
:102780006C6F61642E00496E736572742066696CAB
:10279000616D656E7420616E642070726573732064
:1027A000627574746F6E20286F72204D3130382935
:1027B0000A00496E736572742066696C616D656E9E
:1027C0007420616E64207072657373206275747416
:1027D0006F6E20746F20636F6E74696E75652E2E38
:1027E0002E005461726765742074656D7065727433
:1027F00075726520746F6F206C6F7720666F722022
:1028000066696C616D656E74206C6F616400576100
:10281000697420666F72207072696E7420746F2004
:10282000726573756D652E0050726F62696E6720F8
:102830006661696C65640A0050726F62696E672038
:102840006661696C656400205A3A200020593A207C
:102850000042656420583A20002066697273740A49
:10286000005A0059005800486F6D65200048617299
:1028700064636F6465642044656661756C7420539D
:10288000657474696E6773204C6F616465640A00D7
:10289000B80B0000B80B0000640000001027000017
:1028A00000009643000096430000A0400000C8418D
:1028B0000000A0420000A0420000CC430040DA43E8
:1028C00020204D393036003A0A0020286D6D29004D
:1028D00020204D3931340020204D36303320002067
:1028E00055004C0046696C616D656E74206C6F61BB
:1028F000642F756E6C6F6164206C656E67746873AD
:102900003A0A0020590020580053656E736F726CAC
:1029100065737320686F6D696E6720746872657384
:10292000686F6C643A0A00205430204500205A0039
:1029300020590020580053746570706572206472CD
:10294000697665722063757272656E743A0A00204A
:10295000204D383531205A005A2D50726F62652053
:102960004F66667365740020440020490020204DA6
:1029700033303420500020440020490020204D33C3
:1029800030312050005049442073657474696E677B
:10299000733A0A00205A00204A002020473239208A
:1029A00057204900205A0020204D34323020530057
:1029B0004175746F20426564204C6576656C696E64
:1029C000673A0A00205A0020590020204D32303644
:1029D000205800486F6D65206F66667365743A0A0B
:1029E00000204500205A00205900205800205400A3
:1029F00020530020204D32303520510020453C6DC1
:102A000061785F655F6A65726B3E0020583C6D615E
:102A1000785F785F6A65726B3E20593C6D61785FC4
:102A2000795F6A65726B3E205A3C6D61785F7A5FB0
:102A30006A65726B3E00416476616E6365643A203C
:102A4000513C6D696E5F7365676D656E745F746927
:102A50006D655F75733E20533C6D696E5F6665659D
:102A600064726174653E20543C6D696E5F7472617E
:102A700076656C5F66656564726174653E002054BE
:102A80000020520020204D3230342050004163633A
:102A9000656C65726174696F6E2028756E697473F8
:102AA0002F7332293A20503C7072696E745F6163F3
:102AB00063656C3E20523C726574726163745F6141
:102AC0006363656C3E20543C74726176656C5F6133
:102AD0006363656C3E0A00204500205A00205900BF
:102AE00020204D3230312058004D6178696D756D70
:102AF00020416363656C65726174696F6E2028752F
:102B00006E6974732F7332293A0A00204500205AE7
:102B10000020590020204D3230332058004D61787C
:102B2000696D756D206665656472617465732028D2
:102B3000756E6974732F73293A0A00204500205A74
:102B40000020590020204D39322058005374657000
:102B5000732070657220756E69743A0A0020204DEA
:102B60003230302044300A0020204D3230302044B2
:102B7000002044697361626C65640A0046696C6197
:102B80006D656E742073657474696E67733A0020A6
:102B9000204D3134392043203B20556E6974732019
:102BA000696E2043656C736975730A002020473293
:102BB00031202020203B006F70656E206661696CBB
:102BC00065642C2046696C653A20004572726F720C
:102BD0002077726974696E6720746F204545505282
:102BE0004F4D210A00454550524F4D20646174619C
:102BF00073697A65206572726F722E0A00290A0065
:102C00002062797465733B2063726320005365749E
:102C100074696E67732053746F7265642028000AAC
:102C2000202020205761697420666F722066696CCD
:102C3000616D656E7420756E6C6F6164002020207C
:102C400020205461726765742074656D70657274BC
:102C50007572650A2020202020546F6F206C6F77DA
:102C600020666F720A202020202066696C616D65E5
:102C70006E7420756E6C6F6164000A20546F6F2053
:102C8000636F6C6420666F722066696C616D656E3F
:102C900074206F7065726174696F6E00486F74653F
:102CA0006E6420746F6F20636F6C640A0050726FE3
:102CB0007465637465642050696E0A0046696C61CE
:102CC0006D656E7420757365643A20005374617489
:102CD000733A20002C204C6F6E67657374206A6F06
:102CE000623A2000546F74616C2074696D653A20FB
:102CF0000053746174733A20002C204661696C653E
:102D0000643A20002C2046696E69736865643A2035
:102D1000005072696E74733A200053746174733A90
:102D2000200020573A0020573A0042656420636F24
:102D30006F6C696E672E2E2E004265642068656197
:102D400074696E672E2E2E00205A3A0020593A00E0
:102D500020436F756E7420583A0020453A00205A7F
:102D60003A0020593A00583A004578747275646503
:102D700000526573756D65004D3530300043616EEE
:102D80006E6F74206F70656E207375626469722057
:102D9000006563686F3A0046696C652064656C6520
:102DA0007465643A0044656C6574696F6E20666191
:102DB000696C65642C2046696C653A20006F70650B
:102DC0006E206661696C65642C2046696C653A20EA
:102DD000004572726F723A00290A002062797465A8
:102DE000733B2063726320002073746F72656420EC
:102DF00073657474696E6773207265747269657641
:102E00006564202800202863616C63756C617465BB
:102E10006429210A0020213D2000454550524F4D94
:102E200020435243206D69736D61746368202D20C7
:102E30002873746F7265642920002053697A653A9B
:102E40002000496E6465783A2000204D61726C69FB
:102E50006E3D563539290A0028454550524F4D3DA3
:102E600000454550524F4D2076657273696F6E2054
:102E70006D69736D61746368200057726974696E5F
:102E80006720746F2066696C653A20006F70656E0C
:102E9000206661696C65642C2046696C653A200087
:102EA0006F70656E206661696C65642C2046696C84
:102EB000653A200046696C652073656C65637465CE
:102EC000640A002053697A653A200046696C6520DF
:102ED0006F70656E65643A20002066696C653A2003
:102EE00000646F696E67006672657368004E6F7785
:102EF0002000454E4420535542524F5554494E45AB
:102F00000A002220706F73002220706172656E7457
:102F10003A2200535542524F5554494E45204341A1
:102F20004C4C207461726765743A22004B494C4CDA
:102F300045442E2000747279696E6720746F206397
:102F4000616C6C207375622D67636F6465206669C0
:102F50006C6573207769746820746F6F206D616E83
:102F600079206C6576656C732E204D4158206C6518
:102F700076656C2069733A00486950726563792000
:102F80004C454F2052656164792E005072696E7411
:102F9000696E672E2E2E005072696E7420706175F6
:102FA00073656400545249474745524544006F7069
:102FB000656E003A20007A5F6D696E00795F6D6919
:102FC0006E00785F6D696E005265706F7274696E25
:102FD0006720656E6473746F7020737461747573A9
:102FE0000A0003F9C3F811241FBECFEFD1E2DEBF00
:102FF000CDBF00E00CBF14E0A0E0B2E0ECEBF2E1EA
:1030000002E00BBF02C007900D92A432B107D9F7BE
:103010002BE1A4E2B4E001C01D92A23EB207E1F7A9
:1030200017E1C2EFD7E100E006C021970109802F28
:10303000FE010F948C08C13FD10780E00807A9F773
:103040000E944CF00D944D090C9400002F923F9279
:103050004F925F926F927F928F929F92AF92BF92A8
:10306000CF92DF92EF92FF920F931F93CF93DF9354
:10307000CDB7DEB7CB56D1090FB6F894DEBF0FBE81
:10308000CDBF91E09093BB1480919C0C8D3411F4D2
:103090000C949321843511F40C943A2E873411F05A
:1030A0000C94842E20909A0C30909B0C2CE12216CC
:1030B000310409F45AC6C4F444E02416310444F43B
:1030C00052E025163104DCF537FE32C00C948F2116
:1030D00084E02816310409F4E1C59BE12916310486
:1030E00009F41BC60C948F21AAE52A16310411F4A9
:1030F0000C947D2074F4EEE12E16310409F450C6D0
:103100000CF44AC62AE22216310409F41EC70C94B4
:103110008F213CE52316310409F4F7C70CF4F1C7FD
:103120005DE52516310411F40C946B210C948F216C
:1031300080916F0281110C948B2E0C94862E8091BD
:103140006F02882311F40C94862E0E94264782E594
:103150000E941A47882309F44CC10E949E464B01E5
:103160005C0120E030E0A9010E94C7FE882309F439
:1031700070C18091211590912215A0912315B091D5
:10318000241588AF99AFAAAFBBAF20912515309118
:10319000261540912715509128152CAF3DAF4EAF05
:1031A0005FAF8091BC149091BD14A091BE14B091FA
:1031B000BF142C968CAF9DAFAEAFBFAF2C972091B4
:1031C000C0143091C1144091C2145091C314289678
:1031D0002CAF3DAF4EAF5FAF28979C01AD0168ADFE
:1031E00079AD8AAD9BAD0E94C7FE81110FC02896B4
:1031F0002CAD3DAD4EAD5FAD28976CAD7DAD8EADC8
:103200009FAD0E94C7FE882309F423C111E032E07C
:103210002316310409F010E020E030E0A901C501D7
:10322000B4010E94C7FE881F8827881F181759F00D
:1032300080E090E0A0E8BFEB64968CAF9DAFAEAFAE
:10324000BFAF64970AC020E030E040E85FE36496D7
:103250002CAF3DAF4EAF5FAF649728AD39AD4AADEF
:103260005BAD2C966CAD7DAD8EAD9FAD2C970F9464
:103270006F0560966CAF7DAF8EAF9FAF60972CAD42
:103280003DAD4EAD5FAD28966CAD7DAD8EAD9FADC5
:1032900028970F946F056B017C0160962CAD3DADB6
:1032A0004EAD5FAD6097CA01B9010E942CFF2B01A2
:1032B0003C01A7019601C701B6010E942CFF9B01AA
:1032C000AC01C301B2010F9470050F94DC07249682
:1032D0006CAF7DAF8EAF9FAF249720E030E040E031
:1032E0005FE30E942CFF2B013C01A5019401C50165
:1032F000B4010E942CFF4B015C01A3019201C301A8
:10330000B2010E942CFF9B01AC01C501B4010F94D6
:103310006F050F94DC0764962CAD3DAD4EAD5FADEF
:1033200064970E942CFF4B015C01C701B6019058C5
:1033300024962CAD3DAD4EAD5FAD24970F944C0659
:10334000A50194010E942CFF6B017C012C962CADF1
:103350003DAD4EAD5FAD2C9768AD79AD8AAD9BADFF
:103360000F94700520E030E040E05FE30E942CFF06
:103370009B01AC01C701B6010F94700528AD39ADB2
:103380004AAD5BAD0F946F056B017C0128962CADA7
:103390003DAD4EAD5FAD28976CAD7DAD8EAD9FADB3
:1033A0000F94700520E030E040E05FE30E942CFFC6
:1033B0002B013C0124962CAD3DAD4EAD5FAD249765
:1033C00060966CAD7DAD8EAD9FAD60970F944C0651
:1033D000A50194010E942CFF9B01AC01C301B20125
:1033E0000F9470052CAD3DAD4EAD5FAD0F946F05E4
:1033F00014C089E40E941A47882329F00E949E463F
:103400006B017C0103C0C12CD12C76018AE40E949F
:103410001A47882309F10E949E462C966CAF7DAF17
:103420008EAF9FAF2C9720E030E0A901C701B60115
:103430000E94C7FE81111FC020E030E0A9012C9638
:103440006CAD7DAD8EAD9FAD2C970E94C7FE8111F6
:1034500012C0E1EDFDE20EC420E030E0A901C70199
:10346000B6010E94C7FE8823A1F32C961CAE1DAEA8
:103470001EAE1FAE2C97D701C601B05888AF99AFCA
:10348000AAAFBBAF2C962CAD3DAD4EAD5FAD2C972A
:1034900050582CAF3DAF4EAF5FAF9C01AD01BC01AA
:1034A000CD010E942CFF4B015C012CAD3DAD4EAD1A
:1034B0005FADCA01B9010E942CFF9B01AC01C5019F
:1034C000B4010F9470050F94DC07A0966CAF7DAF2C
:1034D0008EAF9FAFA0978091211590912215A0915A
:1034E0002315B091241528968CAF9DAFAEAFBFAF1A
:1034F0002897A7019601BC01CD010F947005649631
:103500006CAF7DAF8EAF9FAF649720912515309142
:103510002615409127155091281560962CAF3DAF88
:103520004EAF5FAF60972C962CAD3DAD4EAD5FAD0D
:103530002C9760966CAD7DAD8EAD9FAD60970F946E
:103540007005A4966CAF7DAF8EAF9FAFA4978091AE
:10355000BC149091BD14A091BE14B091BF14689694
:103560008CAF9DAFAEAFBFAF689764962CAD3DAD4D
:103570004EAD5FAD6497BC01CD010F946F056B013B
:103580007C012091C0143091C1144091C21450911B
:10359000C3146C962CAF3DAF4EAF5FAF6C97A49643
:1035A0002CAD3DAD4EAD5FADA4976C966CAD7DADD1
:1035B0008EAD9FAD6C970F946F054B015C018091B0
:1035C000291590912A15A0912B15B0912C15A8962C
:1035D0008CAF9DAFAEAFBFAFA8979C01AD0160911E
:1035E000C4147091C5148091C6149091C7140F949F
:1035F0006F0524966CAF7DAF8EAF9FAF2497A70168
:10360000960168AD79AD8AAD9BAD0E942CFF2B0170
:103610003C01A50194016CAD7DAD8EAD9FAD0E94C6
:103620002CFF9B01AC01C301B2010F9470052B016B
:103630003C01A501940168AD79AD8AAD9BAD0E94B6
:103640002CFF4B015C01A70196016CAD7DAD8EADE9
:103650009FAD0E942CFF9B01AC01C501B4010F94EA
:103660006F05A30192010F94E3056B017C0120E03B
:1036700030E0A9010E94C7FE87FF0AC02BED3FE0A2
:1036800049EC50E4C701B6010F9470056B017C0151
:1036900092E02916310451F42BED3FE049EC50E45F
:1036A000C701B6010F946F056B017C0120E030E08B
:1036B000A901C701B6010E94C7FE811128C0689602
:1036C0002CAD3DAD4EAD5FAD689728966CAD7DAD30
:1036D0008EAD9FAD28970E94C7FE811118C06C96D1
:1036E0002CAD3DAD4EAD5FAD6C9760966CAD7DADD4
:1036F0008EAD9FAD60970E94C7FE811108C07BED23
:10370000C72E7FE0D72E79ECE72E70E4F72EA701C5
:103710009601A0966CAD7DAD8EAD9FADA0970E9439
:103720002CFF4B015C0120E030E0A90124966CAD38
:103730007DAD8EAD9FAD24970E94C7FE8823E9F032
:10374000A5019401C501B4010E942CFF4B015C014D
:1037500024962CAD3DAD4EAD5FAD2497CA01B901A5
:103760000E942CFF9B01AC01C501B4010F947005B0
:103770000F94DC074B015C010DC020E030E0A90193
:10378000C501B4010F94960787FF04C0B7FAB0943F
:10379000B7F8B0942FE632E143E85AE3C501B4012B
:1037A0000E94C7FE87FF02C00C94862EC501B4019B
:1037B0000F94E5060F94B9062E967FAF6EAF2E9745
:1037C000DB01AB2B31F4E1E0F0E02E96FFAFEEAF82
:1037D0002E9740902D1550902E1560902F157090BB
:1037E00030152E962EAD3FAD2E97B90180E090E0BA
:1037F0000E94CBFE4B015C019B01AC01C701B601ED
:103800000F944C0628966CAF7DAF8EAF9FAF289774
:10381000A501940124966CAD7DAD8EAD9FAD24972E
:103820000F944C06A0966CAF7DAF8EAF9FAFA09764
:10383000A30192016091C8147091C9148091CA14B7
:103840009091CB140F946F05A50194010F944C0631
:10385000AC966CAF7DAF8EAF9FAFAC9728962CAD7A
:103860003DAD4EAD5FAD2897CA01B9010E942CFF56
:1038700020E030E040E05FE30E942CFF9B01AC01C0
:1038800060E070E080E89FE30F946F0568966CAF8E
:103890007DAF8EAF9FAF6897A8968CAD9DADAEAD56
:1038A000BFADA89789879A87AB87BC874D865E8610
:1038B0006F86788A6091060270910702072E000CCD
:1038C000880B990B0E94CDFE2091780230917902ED
:1038D00040917A0250917B020E942CFF2AE037ED42
:1038E00043E25CE30E942CFF6CAB7DAB8EAB9FABE5
:1038F0000E9484EE9B01AC0128533F4F4F4F5F4F16
:103900006C962CAF3DAF4EAF5FAF6C9748AC59ACE7
:103910006AAC7BAC22242394312C39E121963FAF51
:1039200021972E964EAD5FAD2E974215530509F4A3
:103930004DC10E945E780E9484EEDC01CB016C9642
:103940002CAD3DAD4EAD5FAD6C97821B930BA40BC0
:10395000B50BB7FD11C00E9484EE9B01AC0128534A
:103960003F4F4F4F5F4F6C962CAF3DAF4EAF5FAFA9
:103970006C9780E00E94A97C21963FAD2197315041
:1039800021963FAF2197332309F445C02CAD3DADBF
:103990004EAD5FAD68966CAD7DAD8EAD9FAD689759
:1039A0000E942CFF6B017C019201A30128966CAD53
:1039B0007DAD8EAD9FAD28970E942CFFA70196018B
:1039C0000F9470057B018C019201A30168966CAD88
:1039D0007DAD8EAD9FAD68970E942CFF4B015C01C1
:1039E0002CAD3DAD4EAD5FAD28966CAD7DAD8EADD1
:1039F0009FAD28970E942CFF9B01AC01C501B4012B
:103A00000F946F052B013C01C701D8018CAF9DAF0E
:103A1000AEAFBFAF55C0B10180E090E00E94CBFED9
:103A200028962CAD3DAD4EAD5FAD28970E942CFF82
:103A30004B015C010F9449066B017C01C501B40187
:103A40000F94D2074B015C01A701960168AD79ADD7
:103A50008AAD9BAD0E942CFF2B013C012C962CAD16
:103A60003DAD4EAD5FAD2C97C501B4010E942CFF5A
:103A7000A30192010F9470052B013C01A501940153
:103A800068AD79AD8AAD9BAD0E942CFF4B015C0106
:103A90002C962CAD3DAD4EAD5FAD2C97C701B60158
:103AA0000E942CFF9B01AC01C501B4010F946F056E
:103AB0006CAF7DAF8EAF9FAF49E121964FAF21979D
:103AC0009201A30164966CAD7DAD8EAD9FAD649700
:103AD0000F94700569837A838B839C832CAD3DADF5
:103AE0004EAD5FADA4966CAD7DAD8EAD9FADA49790
:103AF0000F9470056D837E838F839887A0962CAD7D
:103B00003DAD4EAD5FADA09769857A858B859C856F
:103B10000F94700569877A878B879C87AC962CAD4C
:103B20003DAD4EAD5FADAC976D857E858F85988937
:103B30000F9470056D877E878F87988B80914E02DA
:103B4000882321F0CE0101960E9401ADE090381447
:103B50001CA61DA61EA61FA689819A81AB81BC81C9
:103B600088A399A3AAA3BBA38D819E81AF81B885A9
:103B70008CA39DA3AEA3BFA389859A85AB85BC8585
:103B800088A799A7AAA7BBA7AE01485D5F4FBE0152
:103B90006C5D7F4FCE0180960E9476EACE018C96B6
:103BA0006C018E010C5C1F4F9E01235F3F4FAE01E5
:103BB000485D5F4FBE016C5D7F4F0C970E94AD4F1B
:103BC000882321F09FEF291A390AABCEE0903814F0
:103BD00018AA19AA1AAA1BAA8091BC149091BD1404
:103BE000A091BE14B091BF1488A399A3AAA3BBA3AC
:103BF0008091C0149091C114A091C214B091C314CB
:103C00008CA39DA3AEA3BFA38091C4149091C514AF
:103C1000A091C614B091C71488A799A7AAA7BBA75B
:103C2000AE01485D5F4FBE016C5D7F4FCE01809657
:103C30000E9476EADE01D0966D018E010C5C1F4F6A
:103C400028EC34E1AE01485D5F4FBE016C5D7F4FF3
:103C5000CE0180960E94AD4F80E1ECEBF4E1A1E251
:103C6000B5E101900D928A95E1F70C94862E0E94A1
:103C7000DF48F80184918F010F5F1F4F8111F7CF4B
:103C8000E9E8F4E084918F010F5F1F4F882311F45E
:103C90000C94862E0E94DF48F801F4CF80E50E9444
:103CA0001A47882329F00E945E466B017C0103C0FD
:103CB000C12CD12C760183E50E941A47882361F03C
:103CC0000E949E4620E030E04AE754E40E942CFF28
:103CD0000F94B9066B017C010E949C5D80919F1B33
:103CE000811105C060E08FE994E00E94FCE80E9429
:103CF00084EEC60ED71EE81EF91E0E9484EEDC017B
:103D0000CB018C199D09AE09BF09B7FD02C00C9407
:103D1000862E80E00E94A97CF0CF0E9456B48111CB
:103D20000C94862E19821A821B821C821D821E828E
:103D30001F82188680E090E0A0E2B1E489879A872C
:103D4000AB87BC8780E50E941A47882319F00E9440
:103D50006E4601C060E068A3BE016F5F7F4FCE0179
:103D600080960E9428ED0C94862E8091EF14877027
:103D7000873011F00C94902E8FE40E941A4788230C
:103D800019F00E948F4603C08FE40E94D146811132
:103D90000C94862E0C94902E0E94264B0C94862E0A
:103DA000C0902115D0902215E0902315F090241595
:103DB00088E50E941A47811109C020E030E04CE0FC
:103DC00052E4C701B6010F94700502C00E949E46DE
:103DD00068A379A38AA39BA3C0902515D09026152C
:103DE000E0902715F090281589E50E941A47811167
:103DF00009C020E030E040E050E4C701B6010F9474
:103E0000700502C00E949E469B01AC0169837A83C3
:103E10008B839C8368A179A18AA19BA10E94FFAE9C
:103E2000882311F40C94862E80E00E94DE450E94C7
:103E3000614285E40E941A47882321F00E948F4640
:103E4000182F04C085E40E94D14611E086E50E9447
:103E50001A47882321F00E946E46262F01C021E0D8
:103E6000412FBE016F5F7F4FCE0180960E9412B539
:103E70006B017C019B01AC010F941E0881115FC096
:103E800088A099A0AAA0BBA020E030E0A901C501AC
:103E9000B4010E94C7FE87FF05C027E137EB41E56B
:103EA00058EB04C027E137EB41E558E3C501B40105
:103EB0000F947005AB01BC018FEC94E00E94EF976A
:103EC00089809A80AB80BC8020E030E0A901C501E8
:103ED000B4010E94C7FE87FF05C027E137EB41E52B
:103EE00058EB04C027E137EB41E558E3C501B401C5
:103EF0000F947005AB01BC018AEC94E00E94EF972F
:103F000020E030E0A901C701B6010E94C7FE87FF8B
:103F100005C027E137EB41E558EB04C027E137EB5B
:103F200041E558E3C701B6010F947005AB01BC0130
:103F300085EC94E00E94EF978AE00E94DF480E949F
:103F400048420E9431CA0C94862E80916F028823C9
:103F500011F40C94862E89E40E941A47082F8823B6
:103F600021F00E946E46E62E01C0E12C8AE40E94F8
:103F70001A47182F882321F00E946E46F62E01C0A2
:103F8000F12C002319F0B3E0BE1528F0112389F0BD
:103F9000E3E0EF1570F4E7EDF4E084918F010F5F3B
:103FA0001F4F882311F40C94862E0E94DF48F801DD
:103FB000F4CF0E94CB480023F1F0209146153091B8
:103FC00047154E2D4203B001439F700D112480917F
:103FD0008A1B90918B1B680F791F072E000C880B92
:103FE000990B0E94CDFE6093BC147093BD14809316
:103FF000BE149093BF141123F1F020914815309115
:1040000049155F2D5203B001539F700D112480910B
:104010008C1B90918D1B680F791F072E000C880B4D
:10402000990B0E94CDFE6093C0147093C1148093CD
:10403000C2149093C31480E50E941A478823E9F0C4
:104040000E948F468823A9F10023D9F020E030E0B8
:104050004CE052E46091BC147091BD148091BE1488
:104060009091BF140F946F056093BC147093BD14AE
:104070008093BE149093BF1404C080E50E94D14683
:10408000E1CF1123B1F020E030E040E050E4609156
:10409000C0147091C1148091C2149091C3140F94F4
:1040A0006F056093C0147093C1148093C2149093F1
:1040B000C31486E40E941A478823D9F00E949E46C2
:1040C0006B017C0120E030E0A9010F9496071816DF
:1040D00084F420E030E040E752E4C701B6010F94D9
:1040E0004C06609378027093790280937A029093E1
:1040F0007B020E9424800C94862E109224040C943F
:10410000862E909324040C94862E8091990C8830EE
:10411000C1F08930E1F18111DAC01EEB212E12E0ED
:10412000312E02E8E02E08E0F02E21E235E13DAF2D
:104130002CAF80EFC82E84E1D82E18AE10E000E03E
:1041400084C03EEBC32E32E0D32E41E2E42E45E1A3
:10415000F42E18AE10E000E0D6018D916D010E94A2
:104160001A47882369F00E949E46F7016083718395
:1041700082839383033011F411E002C0F1E0F8AFC1
:104180000F5F24E0E20EF11C043031F787C09EEB94
:10419000C92E92E0D92E21E2E22E25E1F22E10E086
:1041A00000E0D6018D916D010E941A47882351F0DD
:1041B0000E949E46F701608371838283938303305C
:1041C00009F411E00F5FF4E0EF0EF11C043049F741
:1041D00078C00E949E462B013C01033049F0F60155
:1041E00020813181428153810F946F052B013C0165
:1041F000ACADBDAD2D913D914D915C91C301B2012E
:104200000F946F054B015C012DEB37E346E855EB4E
:104210000F94960787FD21C02DEB37E346E855E361
:10422000C501B4010E94C7FE1816BCF00F5FE4E0A0
:10423000EE0EF11C2CAD3DAD2C5F3F4F3DAF2CAFD2
:1042400034E0C30ED11C043049F1D1018D911D0120
:104250000E941A47882351F3BCCF033051F4409297
:104260002D1550922E1560922F157092301511E079
:10427000DDCFA5019401F701608171818281938175
:104280000F947005D7016D937D938D939C93139735
:10429000802F0E944F44B1E0B8AFC8CF48AD44234F
:1042A00081F000EA13E0D8018D918D01882319F087
:1042B0000E94DF48F8CF8AE00E94DF480E94C04495
:1042C00006C0112321F08DE295E10E940CB40E94FA
:1042D00031CA0C94862E88E50E94D146082F89E5C4
:1042E0000E94D146182F8AE50E94D146002329F06A
:1042F00090910015916090930015112329F09091F1
:104300000015926090930015882311F40C94862E6A
:10431000809100158460809300150C94862E0E9475
:10432000F5B80C94862E80919A0C90919B0C8A374C
:10433000910511F40C94A92D0CF021C18135910542
:1043400009F4F3C50CF09FC08A31910509F46CC3E0
:104350000CF040C08431910509F466C294F48131B7
:10436000910509F464C244F4029710F00C94372EBE
:104370000E94BBD10C94862E429709F4F0C50C9490
:10438000372E8731910509F49FC274F48531910568
:1043900009F496C2469711F00C94372E0E9413D759
:1043A0001092E9180C94862E8831910509F4A4C264
:1043B000499711F00C94372E1092E8180E94197C3E
:1043C0008FE195E090937408809373080E944549AB
:1043D0000C94862E8032910509F4E7C2ACF58D313C
:1043E000910511F40C94862E94F48B31910509F407
:1043F00029C34C9711F00C94372E40E060E0809177
:10440000970C9091980C0E94F7E40C94862E8E31B4
:10441000910509F4AFC34F9711F00C94372E0E9409
:10442000CA7B68A379A38AA39BA3BE016F5F7F4F5A
:10443000CE0180960E94D14760E0CE0101960E9495
:1044400033E9E1E9FDE2C1C38C34910509F407C405
:104450006CF48A32910509F4CEC38B34910511F0C6
:104460000C94372E0E943F980C94862E8D34910523
:1044700009F4F9C38E34910511F00C94372E0E9483
:10448000E8CE0C94862E8D36910509F4EFC48CF598
:104490008C35910509F47FC584F48335910509F4C1
:1044A0005AC50CF455C58435910509F458C58535B0
:1044B000910509F457C50C94372E8A36910509F4F5
:1044C000EAC454F48836910509F4D1C389369105BC
:1044D00009F48CC40C94372E8B36910509F40FC562
:1044E0008C36910511F00C94372E10921A020C9410
:1044F000862E8337910509F494C1E4F48037910541
:1045000009F446C454F48E36910509F4DBC38F36A2
:10451000910509F4EAC30C94372E8137910509F40B
:104520003BC48237910511F00C94372E0E9496A25D
:104530000C94862E8737910509F465C68CF485376F
:10454000910509F40BC68637910511F00C94372EAE
:104550000091970C1091980C83E0D12C40E013C689
:104560008837910509F452C68937910511F00C94EA
:10457000372E1092300510922F050C94862E82391A
:10458000B1E09B0711F40C946D2C0CF09AC0833DA4
:10459000910511F40C94CD2A0CF048C0883C91058B
:1045A00009F43AC6DCF48C38910509F462C44CF481
:1045B0008D37910511F00C94372E0E94C7A10C94F1
:1045C000862E8B39910509F42CC48E3B910511F090
:1045D0000C94372E0E9454CB0C94862E8C3C910563
:1045E00009F4A4C684F4893C910509F465C68B3CA2
:1045F000910511F00C94372E3EEBE32E32E0F32EB2
:104600000EED14E083C68D3C910509F404C78E3C81
:10461000910511F00C94372E9EEBC92E92E0D92E05
:104620002EE8E22E28E0F22E10E0F8C68E32F1E0FD
:104630009F0711F40C94802BFCF4823E910511F439
:104640000C944C2B54F48C3D910509F4A9C78D3D75
:10465000910509F4B2C70C94372E823231E09307EA
:1046600011F40C94752B8D32914011F00C94372E6F
:104670000E94C59F0C94862E833651E0950709F45D
:10468000CCC06CF48F32B1E09B0711F40C94D42BA6
:104690008033914011F40C94D72B0C94372E803931
:1046A000F1E09F0711F40C946A2C8139914011F0CC
:1046B0000C94372E81E00E94AF430E9431CA0C94C3
:1046C000862E883532E0930711F40C94B82C0CF048
:1046D00046C0843F51E0950711F40C94792CE4F422
:1046E000843AB1E09B0711F40C94732C4CF48A3992
:1046F000914011F00C94372E0E94AD660C94862EDA
:10470000853A21E0920711F40C94762C8C3A914072
:1047100009F49FC60C94372E873F41E0940711F4AB
:104720000C947F2C7CF4853FA1E09A0711F40C9443
:104730007C2C863F914011F00C94372E0E9427C0AC
:104740000C94862E883FE1E09E0711F40C948B2C8C
:104750008C30924011F40C94AF2C0C94372E80398D
:1047600023E0920711F40C94AF2DACF58A3843E0A6
:10477000940711F40C94AC2D6CF48B35A2E09A07DD
:1047800011F40C94BB2C8335934011F40C94442DFC
:104790000C94372E8B38E3E09E0711F40C94862E90
:1047A0008F38934011F00C94372E6091491880E0B7
:1047B0000E94CF716091D01781E00E94CF7160910B
:1047C000571782E00E94CF716091DE1686E00E944A
:1047D000CF710C94862E843923E0920711F40C9447
:1047E000032E7CF4823943E0940711F40C94B22D2B
:1047F0008339934011F00C94372E0E94DA5E0C94AA
:10480000862E803AA3E09A0709F4D2C1873E9340EE
:1048100011F40C94222E0C94372EE1EDFDE20C9451
:10482000572CE4E7F6E03FC4EEE0F5E00BC060E0B3
:1048300086EF94E00E94FCE85F988A988C98129822
:104840000C94862E84918F010F5F1F4F882321F0D7
:104850000E94DF48F801F6CF1092851B89E199E1AB
:104860000E94858B8BE1E9E1F9E1DE01159601906B
:104870000D928A95E1F780911719909118199C83F0
:104880008B838FE393E09A83898340E050E0BE01FD
:104890006F5F7F4F80E090E00E9486D8CE01019646
:1048A0000E9480AFEFEFF4E084918F010F5F1F4F04
:1048B000882311F40C94862E0E94DF48F801F4CF6F
:1048C0000E94D76A0C94862E0E94D9DAE091970C48
:1048D000F091980C8081882329F0803209F41082AD
:1048E0003196F8CF40E061E08091970C9091980C60
:1048F0000E94F7E40C94862E80E090E0A0E2B1E400
:1049000089839A83AB83BC8318A219A21AA21BA223
:104910001CA61DA61EA61FA680916816882351F00E
:10492000AE014F5F5F4FBE01605E7F4FCE018C9640
:104930000E9466B783E50E941A47882381F00E948F
:104940006E46AB01BC014093811B5093821B609368
:10495000831B7093841B81EB9AE10E94EE88809107
:10496000E918882319F081E08093E81884E50E9413
:104970001A47882309F454C00E946E466B017C01DB
:104980000E94FE7BC092150CD092160CE092170C80
:10499000F092180CCD28CE28CF2811F40C94862E36
:1049A00081E08093D01B0C94862E8091E8188111B1
:1049B0000E949C5D8091E918882311F40C94862E46
:1049C00080E50E941A47882309F4EEC00E948F46B2
:1049D000182F482F61E08091970C9091980C0E94BD
:1049E000F7E483E50E941A47882381F00E946E460F
:1049F000AB01BC014093811B5093821B6093831BCE
:104A00007093841B81EB9AE10E94EE888091E918F3
:104A1000882319F081E08093E81811110C94862EF8
:104A20000E943F980C94862E8091E918882311F4F7
:104A30000C94862E83E50E941A4781110C94752FE1
:104A40000C94862E83E40E94D146882309F450C03A
:104A5000E1E5F5E084918F010F5F1F4F882321F07E
:104A60000E94DF48F801F6CF8091B41A811103C08B
:104A7000E4E2F5E012C0BE016F5F7F4F81EB9AE187
:104A80000E94528B8E010F5F1F4FF80181918F01A1
:104A9000882349F10E94DF48F8CF84918F010F5F8E
:104AA0001F4F882301F10E94DF48F801F6CFBDE6D1
:104AB000CB2EB5E0DB2EE12CF12C20E08091F20929
:104AC00090E00E2C02C0959587950A94E2F780FD40
:104AD0003CC13FEFE31AF30A42E0C40ED11C55E09B
:104AE000E516F10459F78AE00E94DF480C94862EFF
:104AF0008091E918882339F08091E818882319F00B
:104B0000EEE2F5E003C0E0E4F5E028C084918F0117
:104B10000F5F1F4F882321F00E94DF48F801F6CF76
:104B20006091811B7091821B8091831B9091841BEB
:104B30004AE00E94AA498FE20E94DF4860917D1BF3
:104B400070917E1B80917F1B9091801B4AE00E9498
:104B5000AA498AE00E94DF480C94862E84918F0136
:104B60000F5F1F4F882311F40C94862E0E94DF489C
:104B7000F801F4CF8091E918882311F40C94862E63
:104B800081EB9AE10E94188B81EB9AE10E944A8B9B
:104B90001092E7181092E6188091970C9091980C5B
:104BA0000E944CDA0C94862E80E50E94D14610CFEC
:104BB0008091970C9091980C21E02093E71840E0A9
:104BC00060E00E94F7E40C94862E84918F010F5FC1
:104BD0001F4F882321F00E94DF48F801F6CFBE0165
:104BE0006F5F7F4F80E695E00E9424988AE00E94E4
:104BF000DF480C94862E83E50E941A47882311F41F
:104C00000C94862E0E947E46E82E80E50E941A476C
:104C1000882339F00E947E46182F87FF03C00C942A
:104C2000862E1DE089E40E941A47882341F00E94E5
:104C30008F4681110C943E30E2EAF7E00BC089E424
:104C40000E94D146F6CF319627E0EF3CF20711F4EF
:104C50000C943E3084911813F6CF0C949C2F0E9434
:104C6000197C0C94862E0E9486980C94862E88E6D9
:104C700090E00E94E64881110C94862E8091F20902
:104C800083FF02C00C94862E83E50E941A47882376
:104C9000A9F00E949E460F94B406CB010E94C0E882
:104CA0000E949E4620E030E04AEA52E40E94C7FE9D
:104CB000181624F00E9486980E9456E90E940699D0
:104CC0000C94862E8EE40E941A47882311F40C94CB
:104CD000862E0E946E4660936B1670936C168093BE
:104CE0006D1690936E160C94862E83E50E94D14625
:104CF000882359F083E50E941A47882319F00E94FF
:104D00007E4601C080E08093F209E1E9FDE28491F2
:104D10008F010F5F1F4F811103C0EBE7F5E004C067
:104D20000E94DF48F801F3CF84918F010F5F1F4F7E
:104D3000882321F00E94DF48F801F6CF8091F20924
:104D40008111B5CEE7E7F5E018C0BB24B394B20EED
:104D5000222319F08CE20E94DF48F601859194919C
:104D6000FC0184918F010F5F1F4F882321F00E9467
:104D7000DF48F801F6CF2B2DACCE84918F010F5F69
:104D80001F4F882309F4AFCE0E94DF48F801F5CF0A
:104D900082E895E00E949EAF83E50E941A47811148
:104DA00003C0E1E9FDE20BC00E947E468D3318F49A
:104DB00080932802ABC78CE380932802A7C7849115
:104DC0008F010F5F1F4F882321F00E94DF48F801F9
:104DD000F6CF4091280250E060E070E08BE895E06B
:104DE0000E94D2978AE00E94DF4890C789E690E04F
:104DF0000E94E648811111C0E2E9F5E084918F013B
:104E00000F5F1F4F882321F00E94DF48F801F6CF83
:104E10000E94BA728AE00E94DF481092BB140C9480
:104E20005A3083E50E941A47882309F46FC70E940D
:104E30007E46182F8D3308F01CE31093B10C0E94AE
:104E400084EE6B017C01212F30E0A8EEB3E00F94DB
:104E50006005C60ED71EE81EF91EC092AD0CD0929A
:104E6000AE0CE092AF0CF092B00C50C70E9423CD74
:104E70004DC78091F20983FD49C783E50E941A4717
:104E8000882309F443C70E949E460F94B406CB01C1
:104E90000E94B3483BC780E50E941A47882339F037
:104EA0000E947E46182F823008F030C701C010E003
:104EB00083E50E941A47882319F00E946E4602C0BB
:104EC0006FEF70E0E12FF0E06F3F710518F4962F5F
:104ED000872F02C09FEF80E0EE0FFF1FE25CFA4ECB
:104EE0009083818311110C94862F6F3F710510F010
:104EF0006FEF70E0709341156093401507C780E530
:104F00000E941A47882339F00E946E46623071056C
:104F100008F0FCC602C060E070E0660F771FFB017E
:104F2000E25CFA4E11821082F1C60E9474730E94F4
:104F30009B5E10923F1510923E15109241151092F3
:104F4000401568EE73E080E090E00E949CE8DEC6C9
:104F500010927D08DBC681E080937D08D7C60E9451
:104F6000FBCAD4C683E50E94D146882309F4CEC685
:104F70000E949E4620E030E04AE754E40E942CFF65
:104F80000F94B9066093A90C7093AA0C8093AB0C94
:104F90009093AC0CBBC66EEBC62E62E0D62E71E1D0
:104FA000E72E75E1F72E10E0D6018D916D010E947C
:104FB000D146882309F46DC0133009F063C00E9404
:104FC0009E464B015C0120E030E040EA51E40E9443
:104FD000C7FE87FF4EC0A501940160911D15709119
:104FE0001E1580911F15909120150F944C062B01D2
:104FF0003C019B01AC016091B6047091B7048091B3
:10500000B8049091B9040E942CFF6093B604709389
:10501000B7048093B8049093B904A30192016091FE
:10502000EA047091EB048091EC049091ED040E94ED
:105030002CFF6093EA047093EB048093EC0490934C
:10504000ED046091120D7091130D8091140D9091EB
:10505000150D0E94CBFEA30192010E942CFF0F941C
:10506000B9066093120D7093130D8093140D9093F5
:10507000150D80921D1590921E15A0921F15B092CD
:10508000201507C00E949E46F701608371838283CA
:1050900093831F5FF4E0EF0EF11C143009F084CF0E
:1050A0000E94919933C684918F010F5F1F4F88230F
:1050B00021F00E94DF48F801F6CF60E084E696E038
:1050C0000E945FA261E08DE596E00E945FA261E030
:1050D00082E596E00E945FA261E082E496E00E9491
:1050E0005FA260E089E396E00E945FA261E08FE248
:1050F00096E00E945FA261E085E296E00E945FA2D6
:1051000061E08DE196E00E945FA261E08FE096E0B1
:105110000E945FA260E081E096E00E945FA260E0F2
:1051200082EF95E00E945FA260E084EE95E00E942D
:105130005FA260E08EEC95E00E945FA260E08DEBE4
:1051400095E00E945FA260E088EA95E00E945FA27D
:1051500061E085E995E00E945FA2D8C58091970C37
:105160009091980CDC012C91222321F060E00E94A8
:1051700033E9CCC50E9456E9C9C5F8019081292FB1
:105180002B7F213419F08150C1F716C021812133C2
:10519000D1F7913421F0953421F441E002C0DD24AF
:1051A000D39498012E5F3F4F89012F5F3F4FD80165
:1051B0009C919032C9F3E7CF442369F0E1E9FDE225
:1051C00084917F01BFEFEB1AFB0A882321F00E9434
:1051D000DF48F701F5CFDD2069F0E4E4F7E08491E2
:1051E0007F012FEFE21AF20A882321F00E94DF48A4
:1051F000F701F5CFD8018D918D01882309F473CC87
:105200000E94DF48F7CF0E9435EE80C581E0809391
:10521000300580932F057AC588EC90E00E94E6481F
:10522000811174C584E40E94D146882309F441C0E9
:105230000E949E466B017C0111E020E030E0A90154
:105240000E94C7FE811101C010E010930A0520E002
:1052500030E0A901C701B6010E94C7FE882349F1C9
:105260000E949E46E0912B0CB4E0EB9FF0011124CC
:10527000EA5FFA4F608371838283938320E030E09A
:10528000A90160910605709107058091080590912C
:1052900009050E94C7FE81110CC080E090E0A0EEDD
:1052A000BFE38093060590930705A0930805B0938C
:1052B00009050E94EBEA2AC54EEBE42E42E0F42EEB
:1052C0000EEC14E05EEDC52E54E0D52EF701819171
:1052D0007F010E94D146882351F00E949E460F9480
:1052E000B906D8016D937D938D939C9313970C5FB2
:1052F0001F4FC016D10651F70E94369907C50C5FA3
:105300001F4FB4E00E3E1B0709F400C5F701819161
:105310007F010E94D146882391F30E949E46D801C6
:105320006D937D938D939C931397E9CF83E50E94B2
:105330001A478823A1F00E949E466093CA04709386
:10534000CB048093CC049093CD046093C6047093F7
:10535000C7048093C8049093C90410E001C011E011
:1053600080E50E941A47882359F00E949E46609368
:10537000CA047093CB048093CC049093CD0410E0C6
:1053800082E50E941A47882359F00E949E46609346
:10539000B6147093B7148093B8149093B91410E0B6
:1053A00084E50E941A47882359F00E949E46609324
:1053B000C6047093C7048093C8049093C904A6C41C
:1053C000112309F4A3C44091CA045091CB04609105
:1053D000CC047091CD048EE497E00E94EF97409149
:1053E000B6145091B7146091B8147091B9148BE44D
:1053F00097E00E94EF974091C6045091C7046091D6
:10540000C8047091C90488E497E00E94EF978AE08D
:105410000E94DF487BC40E9446A178C4F6018191B6
:105420006F010E94D146882359F00E949E46D70101
:105430006D937D938D939C931397812F0E944F447E
:105440001F5FB4E0EB0EF11C133041F70E9431CA2C
:105450005DC40E9456B4811159C408EE14E2E1E221
:10546000F5E1F9AFE8AF9E012F5F3F4F490181E3BE
:10547000A82E85E2B82E1901F801659175918591E4
:105480009491A8ADB9ADCD90DD90ED90FD90B9AF00
:10549000A8AFA70196010F946F052B013C01F10104
:1054A000608371838283938320E030E040EA51EC93
:1054B0000F94960787FD0AC020E030E040EA51E4EF
:1054C000C301B2010E94C7FE18162CF4F5018491A5
:1054D00018160CF426C5D101CD90DD90ED90FD900D
:1054E0001D0120E030E040EA51ECC701B6010F9405
:1054F000960787FD0AC020E030E040EA51E4C7018A
:10550000B6010E94C7FE1816FCF4E1EDFDE284919D
:105510008F010F5F1F4F811103C0ECE7F7E004C05C
:105520000E94DF48F801F3CF84918F010F5F1F4F76
:10553000882321F00E94DF48F801F6CF61E08EE673
:1055400097E00E94FCE8E2C30C5F1F4FBFEFAB1A6D
:10555000BB0AE4E2043F1E0709F08ECFBEE8EB2E43
:10556000B8E0FB2E10E0F40181919191A191B191ED
:105570004F01F70181939193A193B1937F01812F03
:105580000E944F441F5F133071F70E9431CA60E0E0
:105590008EE597E00E94FCE8B9C30E9468A0B6C3FC
:1055A00083E50E941A47882309F4B0C30E946E461F
:1055B0007093070260930602A9C38DED90E00E94EC
:1055C000E6488111A3C383E50E941A47811103C0F5
:1055D000E1E9FDE23BC000912B0C10E00E946E4619
:1055E000000F111FF801EC5FFD4F71836083809104
:1055F0002B0C90E08C01000F111F000F111F980160
:1056000020503E4F7901880F991FFC01EC5FFD4F40
:1056100060817181072E000C880B990B0E94CDFED2
:105620002AE037ED43E25CE30E942CFFF801EB55E2
:10563000FB4F20813181428153810E942CFFD70191
:105640006D937D938D939C93139760C384918F0189
:105650000F5F1F4F882321F00E94DF48F801F6CF2B
:1056600085E40E94DF4880912B0C805D0E94DF481A
:10567000E0912B0CF0E0EE0FFF1FEC5FFD4F60811F
:1056800071818AE997E00E940C9885E20E94DF48C8
:105690008AE00E94DF483AC380E50E94D146882311
:1056A00009F434C30E946E466B017C0183E50E94BD
:1056B0001A47882321F00E946E468B0102C00FEF2B
:1056C0001FEFC8010196039708F020C3D7FC1EC343
:1056D0008C2DE2EAF7E09491891709F42DC43196F4
:1056E000B7E0EF3CFB07B9F72AC48AE50E941A47E6
:1056F00081114EC483E50E941A47811149C406C333
:1057000083E50E94D146182F882371F00E949E469F
:105710000F94B406709373026093720221E0672BBA
:1057200009F020E02093DC1480E50E94D146882314
:1057300059F02091720230917302232B11F00E94D4
:105740008F468093DC14E2C21111E0C2E1E9FDE270
:1057500084918F010F5F1F4F882321F00E94DF4843
:10576000F801F6CF8091DC14882319F069E973E021
:1057700002C06CE973E085EF97E00E942498609185
:1057800072027091730284EE97E00E940C98E0EE32
:10579000F7E084918F010F5F1F4F882309F4B6C291
:1057A0000E94DF48F801F5CF0E94039AAFC280E55E
:1057B0000E94D146882351F00E949E466093F604D1
:1057C0007093F7048093F8049093F90489E40E949D
:1057D000D146882381F00E949E462CEA35EC47E2B0
:1057E0005EE30E942CFF6093F2047093F3048093B5
:1057F000F4049093F50484E40E94D146882381F058
:105800000E949E462CEA35EC47E25EE30F944C067C
:105810006093EE047093EF048093F0049093F1048E
:10582000E1E9FDE284918F010F5F1F4F882321F092
:105830000E94DF48F801F6CF4091F6045091F7043A
:105840006091F8047091F90480E198E00E94EF976C
:105850002CEA35EC47E25EE36091F2047091F304C8
:105860008091F4049091F5040F944C06AB01BC01B7
:105870008CE098E00E94EF972CEA35EC47E25EE37B
:105880006091EE047091EF048091F0049091F10426
:105890000E942CFFAB01BC0188E098E00E94EF97CA
:1058A0008AE00E94DF4832C20E94DF48F8018491FA
:1058B0008F010F5F1F4F8111F7CFE4E1F8E0849172
:1058C0008F010F5F1F4F882309F420C20E94DF4819
:1058D000F801F5CF0E949C5D19C280E00E94AF43A1
:1058E0000E9431CA13C20E94EF6410C20E94596420
:1058F0000DC20E9411C20AC20E9499E107C283E54B
:105900000E94D146882321F00E948F4691E089278A
:105910000E94B5BAFBC181E080938F1B0E94E6DA3A
:1059200010928F1B882309F4F1C1E1E9FDE2849113
:105930008F010F5F1F4F811103C0E3E2F8E004C045
:105940000E94DF48F801F3CF84918F010F5F1F4F52
:10595000882309F4DBC10E94DF48F801F5CF80916C
:10596000E818882309F4D2C181E08093EB18CEC1F6
:105970000E948562CBC18BE592E00E94E6488111CE
:10598000C5C185E50E94D1468823D9F100912B0C31
:1059900010E00E949E466B017C0120E030E0A901EE
:1059A0000F94960787FF04C0F7FAF094F7F8F09485
:1059B000000F111F000F111FF801E65BFA4EC082A5
:1059C000D182E282F38200912B0CE4E00E9F8001F1
:1059D0001124065B1A4E20E030E048E453E4D8017D
:1059E0006D917D918D919C910F94960718164CF4B2
:1059F00080E090E0A8E4B3E4F80180839183A2837F
:105A0000B3838CE40E94D146882309F47FC10091BE
:105A10002B0C10E00E949E466B017C0120E030E0E0
:105A2000A9010F94960787FF04C0F7FAF094F7F8DE
:105A3000F094000F111F000F111FF801E25BFA4EE6
:105A4000C082D182E282F38200912B0CF4E00F9F9E
:105A500080011124025B1A4E20E030E048E453E458
:105A6000D8016D917D918D919C910F949607181698
:105A70000CF04CC180E090E0A8E4B3E4F80180832E
:105A80009183A283B38342C18AE50E941A478111A0
:105A900003C0E1E9FDE23BC00E949E466B017C0130
:105AA00020E030E040EA51EC0F94960787FD0AC0F1
:105AB00020E030E040EA51E4C701B6010E94C7FE91
:105AC00018161CF4E1EDFDE20CC0C092FC14D0925B
:105AD000FD14E092FE14F092FF1418C10E94DF48FA
